{"abi":[{"type":"constructor","inputs":[{"name":"name","type":"string","internalType":"string"},{"name":"symbol","type":"string","internalType":"string"},{"name":"baseURI","type":"string","internalType":"string"},{"name":"initialOwner","type":"address","internalType":"address"}],"stateMutability":"nonpayable"},{"type":"function","name":"approve","inputs":[{"name":"to","type":"address","internalType":"address"},{"name":"tokenId","type":"uint256","internalType":"uint256"}],"outputs":[],"stateMutability":"nonpayable"},{"type":"function","name":"balanceOf","inputs":[{"name":"owner","type":"address","internalType":"address"}],"outputs":[{"name":"","type":"uint256","internalType":"uint256"}],"stateMutability":"view"},{"type":"function","name":"baseTokenURI","inputs":[],"outputs":[{"name":"","type":"string","internalType":"string"}],"stateMutability":"view"},{"type":"function","name":"getApproved","inputs":[{"name":"tokenId","type":"uint256","internalType":"uint256"}],"outputs":[{"name":"","type":"address","internalType":"address"}],"stateMutability":"view"},{"type":"function","name":"isApprovedForAll","inputs":[{"name":"owner","type":"address","internalType":"address"},{"name":"operator","type":"address","internalType":"address"}],"outputs":[{"name":"","type":"bool","internalType":"bool"}],"stateMutability":"view"},{"type":"function","name":"mint","inputs":[{"name":"to","type":"address","internalType":"address"}],"outputs":[],"stateMutability":"nonpayable"},{"type":"function","name":"name","inputs":[],"outputs":[{"name":"","type":"string","internalType":"string"}],"stateMutability":"view"},{"type":"function","name":"nextTokenId","inputs":[],"outputs":[{"name":"","type":"uint256","internalType":"uint256"}],"stateMutability":"view"},{"type":"function","name":"owner","inputs":[],"outputs":[{"name":"","type":"address","internalType":"address"}],"stateMutability":"view"},{"type":"function","name":"ownerOf","inputs":[{"name":"tokenId","type":"uint256","internalType":"uint256"}],"outputs":[{"name":"","type":"address","internalType":"address"}],"stateMutability":"view"},{"type":"function","name":"renounceOwnership","inputs":[],"outputs":[],"stateMutability":"nonpayable"},{"type":"function","name":"safeTransferFrom","inputs":[{"name":"from","type":"address","internalType":"address"},{"name":"to","type":"address","internalType":"address"},{"name":"tokenId","type":"uint256","internalType":"uint256"}],"outputs":[],"stateMutability":"nonpayable"},{"type":"function","name":"safeTransferFrom","inputs":[{"name":"from","type":"address","internalType":"address"},{"name":"to","type":"address","internalType":"address"},{"name":"tokenId","type":"uint256","internalType":"uint256"},{"name":"data","type":"bytes","internalType":"bytes"}],"outputs":[],"stateMutability":"nonpayable"},{"type":"function","name":"setApprovalForAll","inputs":[{"name":"operator","type":"address","internalType":"address"},{"name":"approved","type":"bool","internalType":"bool"}],"outputs":[],"stateMutability":"nonpayable"},{"type":"function","name":"supportsInterface","inputs":[{"name":"interfaceId","type":"bytes4","internalType":"bytes4"}],"outputs":[{"name":"","type":"bool","internalType":"bool"}],"stateMutability":"view"},{"type":"function","name":"symbol","inputs":[],"outputs":[{"name":"","type":"string","internalType":"string"}],"stateMutability":"view"},{"type":"function","name":"tokenURI","inputs":[{"name":"tokenId","type":"uint256","internalType":"uint256"}],"outputs":[{"name":"","type":"string","internalType":"string"}],"stateMutability":"view"},{"type":"function","name":"transferFrom","inputs":[{"name":"from","type":"address","internalType":"address"},{"name":"to","type":"address","internalType":"address"},{"name":"tokenId","type":"uint256","internalType":"uint256"}],"outputs":[],"stateMutability":"nonpayable"},{"type":"function","name":"transferOwnership","inputs":[{"name":"newOwner","type":"address","internalType":"address"}],"outputs":[],"stateMutability":"nonpayable"},{"type":"event","name":"Approval","inputs":[{"name":"owner","type":"address","indexed":true,"internalType":"address"},{"name":"approved","type":"address","indexed":true,"internalType":"address"},{"name":"tokenId","type":"uint256","indexed":true,"internalType":"uint256"}],"anonymous":false},{"type":"event","name":"ApprovalForAll","inputs":[{"name":"owner","type":"address","indexed":true,"internalType":"address"},{"name":"operator","type":"address","indexed":true,"internalType":"address"},{"name":"approved","type":"bool","indexed":false,"internalType":"bool"}],"anonymous":false},{"type":"event","name":"OwnershipTransferred","inputs":[{"name":"previousOwner","type":"address","indexed":true,"internalType":"address"},{"name":"newOwner","type":"address","indexed":true,"internalType":"address"}],"anonymous":false},{"type":"event","name":"Transfer","inputs":[{"name":"from","type":"address","indexed":true,"internalType":"address"},{"name":"to","type":"address","indexed":true,"internalType":"address"},{"name":"tokenId","type":"uint256","indexed":true,"internalType":"uint256"}],"anonymous":false},{"type":"error","name":"ERC721IncorrectOwner","inputs":[{"name":"sender","type":"address","internalType":"address"},{"name":"tokenId","type":"uint256","internalType":"uint256"},{"name":"owner","type":"address","internalType":"address"}]},{"type":"error","name":"ERC721InsufficientApproval","inputs":[{"name":"operator","type":"address","internalType":"address"},{"name":"tokenId","type":"uint256","internalType":"uint256"}]},{"type":"error","name":"ERC721InvalidApprover","inputs":[{"name":"approver","type":"address","internalType":"address"}]},{"type":"error","name":"ERC721InvalidOperator","inputs":[{"name":"operator","type":"address","internalType":"address"}]},{"type":"error","name":"ERC721InvalidOwner","inputs":[{"name":"owner","type":"address","internalType":"address"}]},{"type":"error","name":"ERC721InvalidReceiver","inputs":[{"name":"receiver","type":"address","internalType":"address"}]},{"type":"error","name":"ERC721InvalidSender","inputs":[{"name":"sender","type":"address","internalType":"address"}]},{"type":"error","name":"ERC721NonexistentToken","inputs":[{"name":"tokenId","type":"uint256","internalType":"uint256"}]},{"type":"error","name":"OwnableInvalidOwner","inputs":[{"name":"owner","type":"address","internalType":"address"}]},{"type":"error","name":"OwnableUnauthorizedAccount","inputs":[{"name":"account","type":"address","internalType":"address"}]}],"bytecode":{"object":"0x608060405234801561001057600080fd5b5060405161158238038061158283398101604081905261002f916101a7565b808484600061003e83826102e6565b50600161004b82826102e6565b5050506001600160a01b03811661007c57604051631e4fbdf760e01b81526000600482015260240160405180910390fd5b6100858161009c565b50600861009283826102e6565b50505050506103a4565b600680546001600160a01b038381166001600160a01b0319831681179093556040519116919082907f8be0079c531659141344cd1fd0a4f28419497f9722a3daafe3b4186f6b6457e090600090a35050565b634e487b7160e01b600052604160045260246000fd5b600082601f83011261011557600080fd5b81516001600160401b0381111561012e5761012e6100ee565b604051601f8201601f19908116603f011681016001600160401b038111828210171561015c5761015c6100ee565b60405281815283820160200185101561017457600080fd5b60005b8281101561019357602081860181015183830182015201610177565b506000918101602001919091529392505050565b600080600080608085870312156101bd57600080fd5b84516001600160401b038111156101d357600080fd5b6101df87828801610104565b602087015190955090506001600160401b038111156101fd57600080fd5b61020987828801610104565b604087015190945090506001600160401b0381111561022757600080fd5b61023387828801610104565b606087015190935090506001600160a01b038116811461025257600080fd5b939692955090935050565b600181811c9082168061027157607f821691505b60208210810361029157634e487b7160e01b600052602260045260246000fd5b50919050565b601f8211156102e157806000526020600020601f840160051c810160208510156102be5750805b601f840160051c820191505b818110156102de57600081556001016102ca565b50505b505050565b81516001600160401b038111156102ff576102ff6100ee565b6103138161030d845461025d565b84610297565b6020601f821160018114610347576000831561032f5750848201515b600019600385901b1c1916600184901b1784556102de565b600084815260208120601f198516915b828110156103775787850151825560209485019460019092019101610357565b50848210156103955786840151600019600387901b60f8161c191681555b50505050600190811b01905550565b6111cf806103b36000396000f3fe608060405234801561001057600080fd5b50600436106101215760003560e01c8063715018a6116100ad578063b88d4fde11610071578063b88d4fde1461024d578063c87b56dd14610260578063d547cfb714610273578063e985e9c51461027b578063f2fde38b1461028e57600080fd5b8063715018a61461021057806375794a3c146102185780638da5cb5b1461022157806395d89b4114610232578063a22cb4651461023a57600080fd5b806323b872dd116100f457806323b872dd146101a357806342842e0e146101b65780636352211e146101c95780636a627842146101dc57806370a08231146101ef57600080fd5b806301ffc9a71461012657806306fdde031461014e578063081812fc14610163578063095ea7b31461018e575b600080fd5b610139610134366004610e0f565b6102a1565b60405190151581526020015b60405180910390f35b6101566102f3565b6040516101459190610e7c565b610176610171366004610e8f565b610385565b6040516001600160a01b039091168152602001610145565b6101a161019c366004610ec4565b6103ae565b005b6101a16101b1366004610eee565b6103bd565b6101a16101c4366004610eee565b61044d565b6101766101d7366004610e8f565b61046d565b6101a16101ea366004610f2b565b610478565b6102026101fd366004610f2b565b6104a4565b604051908152602001610145565b6101a16104ec565b61020260075481565b6006546001600160a01b0316610176565b610156610500565b6101a1610248366004610f46565b61050f565b6101a161025b366004610f98565b61051a565b61015661026e366004610e8f565b610531565b610156610599565b61013961028936600461107c565b610627565b6101a161029c366004610f2b565b610655565b60006001600160e01b031982166380ac58cd60e01b14806102d257506001600160e01b03198216635b5e139f60e01b145b806102ed57506301ffc9a760e01b6001600160e01b03198316145b92915050565b606060008054610302906110af565b80601f016020809104026020016040519081016040528092919081815260200182805461032e906110af565b801561037b5780601f106103505761010080835404028352916020019161037b565b820191906000526020600020905b81548152906001019060200180831161035e57829003601f168201915b5050505050905090565b600061039082610693565b506000828152600460205260409020546001600160a01b03166102ed565b6103b98282336106cc565b5050565b6001600160a01b0382166103ec57604051633250574960e11b8152600060048201526024015b60405180910390fd5b60006103f98383336106d9565b9050836001600160a01b0316816001600160a01b031614610447576040516364283d7b60e01b81526001600160a01b03808616600483015260248201849052821660448201526064016103e3565b50505050565b6104688383836040518060200160405280600081525061051a565b505050565b60006102ed82610693565b6104806107d2565b61048c816007546107ff565b6007805490600061049c836110e9565b919050555050565b60006001600160a01b0382166104d0576040516322718ad960e21b8152600060048201526024016103e3565b506001600160a01b031660009081526003602052604090205490565b6104f46107d2565b6104fe6000610819565b565b606060018054610302906110af565b6103b933838361086b565b6105258484846103bd565b6104478484848461090a565b606061053c82610693565b506000610547610a33565b905060008151116105675760405180602001604052806000815250610592565b8061057184610a42565b604051602001610582929190611110565b6040516020818303038152906040525b9392505050565b600880546105a6906110af565b80601f01602080910402602001604051908101604052809291908181526020018280546105d2906110af565b801561061f5780601f106105f45761010080835404028352916020019161061f565b820191906000526020600020905b81548152906001019060200180831161060257829003601f168201915b505050505081565b6001600160a01b03918216600090815260056020908152604080832093909416825291909152205460ff1690565b61065d6107d2565b6001600160a01b03811661068757604051631e4fbdf760e01b8152600060048201526024016103e3565b61069081610819565b50565b6000818152600260205260408120546001600160a01b0316806102ed57604051637e27328960e01b8152600481018490526024016103e3565b6104688383836001610ad5565b6000828152600260205260408120546001600160a01b039081169083161561070657610706818486610bdb565b6001600160a01b0381161561074457610723600085600080610ad5565b6001600160a01b038116600090815260036020526040902080546000190190555b6001600160a01b03851615610773576001600160a01b0385166000908152600360205260409020805460010190555b60008481526002602052604080822080546001600160a01b0319166001600160a01b0389811691821790925591518793918516917fddf252ad1be2c89b69c2b068fc378daa952ba7f163c4a11628f55a4df523b3ef91a4949350505050565b6006546001600160a01b031633146104fe5760405163118cdaa760e01b81523360048201526024016103e3565b6103b9828260405180602001604052806000815250610c3f565b600680546001600160a01b038381166001600160a01b0319831681179093556040519116919082907f8be0079c531659141344cd1fd0a4f28419497f9722a3daafe3b4186f6b6457e090600090a35050565b6001600160a01b03821661089d57604051630b61174360e31b81526001600160a01b03831660048201526024016103e3565b6001600160a01b03838116600081815260056020908152604080832094871680845294825291829020805460ff191686151590811790915591519182527f17307eab39ab6107e8899845ad3d59bd9653f200f220920489ca2b5937696c31910160405180910390a3505050565b6001600160a01b0383163b1561044757604051630a85bd0160e11b81526001600160a01b0384169063150b7a029061094c90339088908790879060040161113f565b6020604051808303816000875af1925050508015610987575060408051601f3d908101601f191682019092526109849181019061117c565b60015b6109f0573d8080156109b5576040519150601f19603f3d011682016040523d82523d6000602084013e6109ba565b606091505b5080516000036109e857604051633250574960e11b81526001600160a01b03851660048201526024016103e3565b805181602001fd5b6001600160e01b03198116630a85bd0160e11b14610a2c57604051633250574960e11b81526001600160a01b03851660048201526024016103e3565b5050505050565b606060088054610302906110af565b60606000610a4f83610c56565b600101905060008167ffffffffffffffff811115610a6f57610a6f610f82565b6040519080825280601f01601f191660200182016040528015610a99576020820181803683370190505b5090508181016020015b600019016f181899199a1a9b1b9c1cb0b131b232b360811b600a86061a8153600a8504945084610aa357509392505050565b8080610ae957506001600160a01b03821615155b15610bab576000610af984610693565b90506001600160a01b03831615801590610b255750826001600160a01b0316816001600160a01b031614155b8015610b385750610b368184610627565b155b15610b615760405163a9fbf51f60e01b81526001600160a01b03841660048201526024016103e3565b8115610ba95783856001600160a01b0316826001600160a01b03167f8c5be1e5ebec7d5bd14f71427d1e84f3dd0314c0f7b2291e5b200ac8c7c3b92560405160405180910390a45b505b5050600090815260046020526040902080546001600160a01b0319166001600160a01b0392909216919091179055565b610be6838383610d2e565b610468576001600160a01b038316610c1457604051637e27328960e01b8152600481018290526024016103e3565b60405163177e802f60e01b81526001600160a01b0383166004820152602481018290526044016103e3565b610c498383610d94565b610468600084848461090a565b60008072184f03e93ff9f4daa797ed6e38ed64bf6a1f0160401b8310610c955772184f03e93ff9f4daa797ed6e38ed64bf6a1f0160401b830492506040015b6d04ee2d6d415b85acef81000000008310610cc1576d04ee2d6d415b85acef8100000000830492506020015b662386f26fc100008310610cdf57662386f26fc10000830492506010015b6305f5e1008310610cf7576305f5e100830492506008015b6127108310610d0b57612710830492506004015b60648310610d1d576064830492506002015b600a83106102ed5760010192915050565b60006001600160a01b03831615801590610d8c5750826001600160a01b0316846001600160a01b03161480610d685750610d688484610627565b80610d8c57506000828152600460205260409020546001600160a01b038481169116145b949350505050565b6001600160a01b038216610dbe57604051633250574960e11b8152600060048201526024016103e3565b6000610dcc838360006106d9565b90506001600160a01b03811615610468576040516339e3563760e11b8152600060048201526024016103e3565b6001600160e01b03198116811461069057600080fd5b600060208284031215610e2157600080fd5b813561059281610df9565b60005b83811015610e47578181015183820152602001610e2f565b50506000910152565b60008151808452610e68816020860160208601610e2c565b601f01601f19169290920160200192915050565b6020815260006105926020830184610e50565b600060208284031215610ea157600080fd5b5035919050565b80356001600160a01b0381168114610ebf57600080fd5b919050565b60008060408385031215610ed757600080fd5b610ee083610ea8565b946020939093013593505050565b600080600060608486031215610f0357600080fd5b610f0c84610ea8565b9250610f1a60208501610ea8565b929592945050506040919091013590565b600060208284031215610f3d57600080fd5b61059282610ea8565b60008060408385031215610f5957600080fd5b610f6283610ea8565b915060208301358015158114610f7757600080fd5b809150509250929050565b634e487b7160e01b600052604160045260246000fd5b60008060008060808587031215610fae57600080fd5b610fb785610ea8565b9350610fc560208601610ea8565b925060408501359150606085013567ffffffffffffffff811115610fe857600080fd5b8501601f81018713610ff957600080fd5b803567ffffffffffffffff81111561101357611013610f82565b604051601f8201601f19908116603f0116810167ffffffffffffffff8111828210171561104257611042610f82565b60405281815282820160200189101561105a57600080fd5b8160208401602083013760006020838301015280935050505092959194509250565b6000806040838503121561108f57600080fd5b61109883610ea8565b91506110a660208401610ea8565b90509250929050565b600181811c908216806110c357607f821691505b6020821081036110e357634e487b7160e01b600052602260045260246000fd5b50919050565b60006001820161110957634e487b7160e01b600052601160045260246000fd5b5060010190565b60008351611122818460208801610e2c565b835190830190611136818360208801610e2c565b01949350505050565b6001600160a01b038581168252841660208201526040810183905260806060820181905260009061117290830184610e50565b9695505050505050565b60006020828403121561118e57600080fd5b815161059281610df956fea26469706673582212202148a77c620bb47918a999322c258555c6c64a9aecd8a8c06aacb47c96f57cc464736f6c634300081a0033","linkReferences":{}},"methodIdentifiers":{"approve(address,uint256)":"095ea7b3","balanceOf(address)":"70a08231","baseTokenURI()":"d547cfb7","getApproved(uint256)":"081812fc","isApprovedForAll(address,address)":"e985e9c5","mint(address)":"6a627842","name()":"06fdde03","nextTokenId()":"75794a3c","owner()":"8da5cb5b","ownerOf(uint256)":"6352211e","renounceOwnership()":"715018a6","safeTransferFrom(address,address,uint256)":"42842e0e","safeTransferFrom(address,address,uint256,bytes)":"b88d4fde","setApprovalForAll(address,bool)":"a22cb465","supportsInterface(bytes4)":"01ffc9a7","symbol()":"95d89b41","tokenURI(uint256)":"c87b56dd","transferFrom(address,address,uint256)":"23b872dd","transferOwnership(address)":"f2fde38b"},"id":38}